:100000000C942A000C9447000C9447000C94470071
:100010000C9447000C9447000C9447000C94470044
:100020000C9447000C9447000C9447000C94470034
:100030000C9447000C9447000C9447000C94470024
:100040000C9447000C9447000C9447000C94470014
:100050000C94470011241FBECFE5D8E0DEBFCDBF12
:1000600010E0A0E6B0E0E0EBFFE002C005900D92EA
:10007000AA38B107D9F722E0AAE8B0E001C01D9282
:10008000AE31B207E1F70E94F0050C94D6070C944C
:10009000000090ED980F9A3050F09FE9980F9A3138
:1000A00048F081548A3148F481E090E0089581E07D
:1000B00090E0089581E090E0089580E090E0089558
:1000C0008B3249F08D3251F08A3259F08F3261F41F
:1000D00081E090E0089581E090E0089581E090E073
:1000E000089581E090E0089580E090E008958B32DB
:1000F00071F018F48A3241F004C08D3241F08F3231
:1001000019F08FEF9FEF089582E090E0089581E06D
:1001100090E008951F93CF93DF93162F0E947700EE
:10012000EC01812F0E94770021E0C817D9070CF459
:1001300020E0822F90E0DF91CF911F9108952F92C0
:100140003F924F925F926F927F928F929F92AF9267
:10015000BF92CF92DF92EF92FF920F931F93CF93B4
:10016000DF93CDB7DEB7C456D1090FB6F894DEBF22
:100170000FBECDBF3C0184E690E00E948F066C016B
:10018000F30101900020E9F731972F014618570835
:10019000812C912C22242394EE24EA94FE2C00E05E
:1001A00010E053C05301A80CB91CF5013080832D19
:1001B0000E946000892B81F42FC0F601E00FF11F2F
:1001C00080E28083F8013196EC0DFD1D0E5F1F4F1C
:1001D00081E0E81AF10830829FEFE916F90671F024
:1001E000E1E0F0E0EC0FFD1FEE0DFF1D3080F501AA
:1001F0006081832D0E948A00892BF9F6FFEFEF1AA8
:10020000FF0AF5018081E1E0F0E0EC0FFD1FEE0D4B
:10021000FF1D8083212C0DC0832D0E944900892B56
:1002200041F0F601E00FF11F30820F5F1F4F2224D3
:100230002394211007C0F601E00FF11F80E28083B4
:100240000F5F1F4FFFEF8F1A9F0A841495040CF461
:10025000A9CF16C0F601E00FF11F80E28083F801FC
:100260003196EC0DFD1D0E5F1F4FA1E0B0E0AC0F0D
:10027000BD1FAE0DBF1D8C918083C70101977C010E
:100280009FEFE916F90631F7F601E00FF11F108232
:10029000C601CC59DF4F0FB6F894DEBF0FBECDBFFD
:1002A000DF91CF911F910F91FF90EF90DF90CF9052
:1002B000BF90AF909F908F907F906F905F904F9086
:1002C0003F902F900895CF93DF9300D0CDB7DEB746
:1002D0009C014B3249F018F44A3289F020C04D326B
:1002E00041F04F32B1F01BC0260F371F3A832983EC
:1002F00016C0CB01821B930B9A83898310C0629F27
:10030000C001639F900D729F900D11249A83898381
:1003100006C0CB01B9010E9445067A8369838981B1
:100320009A810F900F90DF91CF9108950F931F93B3
:10033000009166001091670020916800309169007B
:100340000336110521053105C1F00F5F1F4F2F4FF7
:100350003F4F00936600109367002093680030932E
:1003600069009801220F331F220F331FF901E6574E
:10037000FF4F60837183828393831F910F91089550
:100380008091660090916700A0916800B09169002B
:100390008F3F2FEF9207A207B20759F00197A109EB
:1003A000B1098093660090936700A0936800B093B2
:1003B000690008958091660090916700A09168009F
:1003C000B09169008F3F2FEF9207A207B20761F04B
:1003D000880F991F880F991FFC01E657FF4F608116
:1003E000718182819381089508952F923F926F9237
:1003F0007F928F929F92AF92BF92CF92DF92EF92B5
:10040000FF920F931F93CF93DF93CDB7DEB7639720
:100410000FB6F894DEBF0FBECDBF0E949F006C01E7
:10042000FC0101900020E9F731971F01281A390AD1
:10043000A12CB12C00E010E054C07601E00EF11EBA
:10044000F701808190ED980F9A3058F4E1E0F0E0E8
:10045000EC0FFD1FEA0DFB1D8083C50101965C01B9
:100460003EC08032B1F4A114B104C9F1E1E0F0E082
:10047000EC0FFD1FEA0DFB1D1082CE0101960E94BC
:10048000B007BC0180E090E00E949601A12CB12C45
:1004900026C00E946000892B11F10E94DA014B01F5
:1004A0005C010E94C0010E94DA01688B798B8A8B03
:1004B0009B8B0E94C001F70140814F3219F48114D7
:1004C0009104B1F068897989C4010E946301BC017B
:1004D000990F880B990B0E949601A12CB12C0F5FEC
:1004E0001F4F0215130508F4A8CF80E090E002C06A
:1004F00081E090E0892B59F060E070E081E090E0CD
:100500000E9487058AE790E00E946F050AC060E0BC
:1005100070E081E090E00E9487050E94DA010E946D
:100520009405C6010E94270763960FB6F894DEBFB4
:100530000FBECDBFDF91CF911F910F91FF90EF9034
:10054000DF90CF90BF90AF909F908F907F906F90F3
:100550003F902F900895683008F078C04130C1F581
:10056000813091F028F08230D9F0833029F170C0C9
:100570002AB381E090E002C0880F991F6A95E2F7E4
:10058000822B8ABB80E0089527B381E090E002C00F
:10059000880F991F6A95E2F7822B87BB80E0089548
:1005A00024B381E090E002C0880F991F6A95E2F7BA
:1005B000822B84BB80E0089521B381E090E002C0EB
:1005C000880F991F6A95E2F7822B81BB80E008951E
:1005D000411140C0813099F028F08230E9F0833039
:1005E00041F13AC02AB381E090E002C0880F991F20
:1005F0006A95E2F7809582238ABB80E0089527B34D
:1006000081E090E002C0880F991F6A95E2F780951B
:10061000822387BB80E0089524B381E090E002C08C
:10062000880F991F6A95E2F78095822384BB80E04A
:10063000089521B381E090E002C0880F991F6A9568
:10064000E2F78095822381BB80E0089581E00895E0
:1006500081E0089581E0089581E00895683008F010
:1006600078C04130C1F5813091F028F08230D9F066
:10067000833029F170C02BB381E090E002C0880F75
:10068000991F6A95E2F7822B8BBB80E0089528B30F
:1006900081E090E002C0880F991F6A95E2F7822BF3
:1006A00088BB80E0089525B381E090E002C0880F08
:1006B000991F6A95E2F7822B85BB80E0089522B3EB
:1006C00081E090E002C0880F991F6A95E2F7822BC3
:1006D00082BB80E00895411140C0813099F028F03C
:1006E0008230E9F0833041F13AC02BB381E090E0F1
:1006F00002C0880F991F6A95E2F7809582238BBB11
:1007000080E0089528B381E090E002C0880F991F2F
:100710006A95E2F78095822388BB80E0089525B32F
:1007200081E090E002C0880F991F6A95E2F78095FA
:10073000822385BB80E0089522B381E090E002C06F
:10074000880F991F6A95E2F78095822382BB80E02B
:10075000089581E0089581E0089581E0089581E0A1
:1007600008956830C0F5813091F028F08230D9F0DA
:10077000833029F132C089B390E002C09595879506
:100780006A95E2F78170FA01808380E0089586B36C
:1007900090E002C0959587956A95E2F78170FA011D
:1007A000808380E0089583B390E002C0959587959B
:1007B0006A95E2F78170FA01808380E0089580B342
:1007C00090E002C0959587956A95E2F78170FA01ED
:1007D000808380E0089581E0089581E0089540E0FD
:1007E00060E083E00E94AB0240E061E083E00E94B1
:1007F000AB0240E062E083E00E94AB0240E063E0D5
:1008000083E00E94AB0241E060E083E00E942E039F
:1008100041E061E083E00E942E0341E062E083E07A
:100820000E942E0341E063E083E00E942E0341E03A
:1008300064E083E00E94AB0241E065E083E00E9457
:10084000AB0241E066E083E00E94AB0241E067E07A
:1008500083E00E94AB0241E064E083E00E942E034B
:1008600041E065E083E00E942E0341E066E083E022
:100870000E942E0341E067E083E00E942E0308956A
:10088000AF92BF92CF92DF92EF92FF920F931F939E
:10089000CF93DF93CDB7DEB769970FB6F894DEBF7D
:1008A0000FBECDBF80E1EAE6F0E0DE0111960190D7
:1008B0000D928A95E1F7198A81E08A8B92E09B8BF1
:1008C00093E09C8B94E09D8B95E09E8B96E09F8BB4
:1008D00097E0988F898FB12C46C0CB2CD12CE5E1C5
:1008E000F0E0EC0FFD1FEC0DFD1DA08040E06A2D37
:1008F00083E00E942E0310E02EC0E12EF12CE1E1F6
:10090000F0E0EC0FFD1FEE0DFF1D0081AE01475E14
:100910005F4F602F83E00E94B103898D81111AC05F
:1009200007C0AE01475E5F4F602F83E00E94B103B6
:10093000898D8823B1F3EE0CFF1CEE0CFF1C81E0C7
:1009400090E08C0F9D1FE80EF91EF701EC0DFD1DC8
:1009500080810EC01F5F143080F241E06A2D83E079
:100960000E942E03B39493E09B1508F0B6CF8FEF4F
:1009700069960FB6F894DEBF0FBECDBFDF91CF9161
:100980001F910F91FF90EF90DF90CF90BF90AF90AD
:100990000895CF93C82F482F417060E082E00E94F5
:1009A0002E03C1FB442740F961E082E00E942E0340
:1009B000C2FB442740F962E082E00E942E03C3FBA1
:1009C000442740F963E082E00E942E03CF9108950E
:1009D00041E067E082E00E942E038FE39FE10197F0
:1009E000F1F700C0000040E067E082E00E942E03C3
:1009F0000895CF93C82F40E065E082E00E942E0367
:100A000040E066E082E00E942E038C2F82958F707A
:100A10000E94C9040E94E8048C2F0E94C9040E940D
:100A2000E804CF91089541E065E082E00E94AB02C6
:100A300041E066E082E00E94AB0241E067E082E0D4
:100A40000E94AB0241E060E082E00E94AB0241E024
:100A500061E082E00E94AB0241E062E082E00E943D
:100A6000AB0241E063E082E00E94AB022FEF83EF34
:100A700091E0215080409040E1F700C0000082E00A
:100A80000E94C9040E94E80482E00E94C9040E94F6
:100A9000E8048CE00E94C9040E94E8048CE00E94F3
:100AA000F90481E00E94F9040895CF93C82F41E032
:100AB00065E082E00E942E0340E066E082E00E9452
:100AC0002E038C2F82958F700E94C9040E94E80427
:100AD0008C2F0E94C9040E94E804CF9108950F93BF
:100AE0001F93CF938430910531F481E00CC00E94B4
:100AF0005505CF5F02C08C01C0E0F801EC0FF11D7D
:100B000080818111F4CFCF911F910F910895823090
:100B100030F490E4899F600D1124862F01C080E09D
:100B200080580E94F9040895CF92DF92EF92FF92CD
:100B30000F931F938B019C01672B682B692B49F541
:100B400080E30E94550545C0DC01CB01880F991F49
:100B5000AA1FBB1F6C017D01CC0CDD1CEE1CFF1C11
:100B6000CC0CDD1CEE1CFF1CC80ED91EEA1EFB1EA1
:100B7000C901B8012AE030E040E050E00E94590687
:100B80006C0D7D1D8E1D9F1D022F132F242F352FC1
:100B900004C061E070E080E090E0011511052105DE
:100BA000310591F62AE030E040E050E00E9459061D
:100BB000E22EF32E042F152F80E3860F0E94550599
:100BC0006E2D7F2D802F912F61307105810591054C
:100BD00049F71F910F91FF90EF90DF90CF9008950C
:100BE000CF93DF93CDB7DEB7C456D1090FB6F894D3
:100BF000DEBF0FBECDBF0E9413050E94EF0381E848
:100C000090E00E946F052FEF83ED90E3215080402C
:100C10009040E1F700C0000081E00E94F90400E08C
:100C20000E944004182F8F3FD9F38D3349F083344D
:100C300099F48981811121C081E00E94F9041DC0CD
:100C400089818823D1F08DE30E945505CE0101965C
:100C50000E94F50100E011C08981811103C081E08B
:100C60000E945505E1E0F0E0EC0FFD1FE00FF11DE3
:100C70001083812F0E9455050F5FE1E0F0E0EC0F3B
:100C8000FD1FE00FF11D1082CBCF97FB072E16F44E
:100C9000009407D077FD09D00E947B0607FC05D0A1
:100CA0003EF4909581959F4F0895709561957F4F83
:100CB0000895A1E21A2EAA1BBB1BFD010DC0AA1F9D
:100CC000BB1FEE1FFF1FA217B307E407F50720F0B5
:100CD000A21BB30BE40BF50B661F771F881F991F30
:100CE0001A9469F760957095809590959B01AC0179
:100CF000BD01CF010895AA1BBB1B51E107C0AA1F6C
:100D0000BB1FA617B70710F0A61BB70B881F991FAC
:100D10005A95A9F780959095BC01CD0108950F9340
:100D20001F93CF93DF938230910510F482E090E01F
:100D3000E0911C02F0911D0220E030E0A0E0B0E064
:100D4000309719F140815181028113814817590769
:100D5000C8F08417950769F4109731F012960C9338
:100D6000129713961C9327C000931C0210931D0228
:100D700022C02115310519F04217530718F49A01C2
:100D8000BD01EF01DF01F801DBCF21153105F9F0DD
:100D9000281B390B2430310580F48A819B81611531
:100DA000710521F0FB019383828304C090931D029F
:100DB00080931C02FE01329644C0FE01E20FF31F35
:100DC0008193919322503109398328833AC020912D
:100DD0001A0230911B02232B41F4209162003091C2
:100DE000630030931B0220931A022091600030911F
:100DF00061002115310541F42DB73EB740916400E3
:100E000050916500241B350BE0911A02F0911B02F2
:100E1000E217F307A0F42E1B3F0B2817390778F0D1
:100E2000AC014E5F5F4F2417350748F04E0F5F1F30
:100E300050931B0240931A028193919302C0E0E009
:100E4000F0E0CF01DF91CF911F910F910895CF93E3
:100E5000DF93009709F481C0FC013297138212825C
:100E6000A0911C02B0911D02109781F42081318164
:100E7000820F931F20911A0230911B022817390705
:100E800051F5F0931B02E0931A0267C0ED0120E0D8
:100E900030E0CE17DF0740F44A815B819E014115A7
:100EA0005105F1F0EA01F5CFD383C283408151812E
:100EB000840F951FC817D90759F488819981840F29
:100EC000951F0296918380838A819B81938382837D
:100ED0002115310529F4F0931D02E0931C023DC059
:100EE000E901FB83EA8349915991C40FD51FEC179F
:100EF000FD0761F480819181840F951F0296E901BD
:100F000099838883828193819B838A83E0E0F0E0E8
:100F100012968D919C911397009719F0FD01DC01B9
:100F2000F7CF8D919C9111979D012E5F3F4F820FBE
:100F3000931F20911A0230911B022817390769F478
:100F4000309729F410921D0210921C0202C01382E5
:100F50001282B0931B02A0931A02DF91CF910895E1
:100F6000FC0188279927E89421912032E9F3293060
:100F700010F02E30C8F32B3241F02D3239F4689442
:100F800004C00E94CE07820F911D219120532A3068
:100F9000C0F31EF4909581959F4F08957AE0979F36
:100FA000902D879F802D910D11240895F894FFCFE7
:100FB00000001E022000FFFFFFFF3738392F3435B5
:100FC000362A3132332D43303D2B4552524F522178
:0A0FD0000057656C636F6D6500004B
:00000001FF
